{
  "_format": "hh-sol-artifact-1",
  "contractName": "UniswapV3LiquidityChanger",
  "sourceName": "contracts/uniswapV3/UniswapV3LiquidityChanger.sol",
  "abi": [
    {
      "inputs": [
        {
          "internalType": "address",
          "name": "npm",
          "type": "address"
        },
        {
          "internalType": "uint256",
          "name": "tokenId",
          "type": "uint256"
        }
      ],
      "name": "getAmount0",
      "outputs": [
        {
          "internalType": "uint256",
          "name": "amount0",
          "type": "uint256"
        }
      ],
      "stateMutability": "view",
      "type": "function"
    },
    {
      "inputs": [
        {
          "internalType": "address",
          "name": "npm",
          "type": "address"
        },
        {
          "internalType": "uint256",
          "name": "tokenId",
          "type": "uint256"
        }
      ],
      "name": "getAmount1",
      "outputs": [
        {
          "internalType": "uint256",
          "name": "amount1",
          "type": "uint256"
        }
      ],
      "stateMutability": "view",
      "type": "function"
    },
    {
      "inputs": [
        {
          "internalType": "address",
          "name": "npm",
          "type": "address"
        },
        {
          "internalType": "address",
          "name": "poolAddress",
          "type": "address"
        },
        {
          "internalType": "uint256",
          "name": "tokenId",
          "type": "uint256"
        }
      ],
      "name": "getAmounts",
      "outputs": [
        {
          "internalType": "uint256",
          "name": "amount0",
          "type": "uint256"
        },
        {
          "internalType": "uint256",
          "name": "amount1",
          "type": "uint256"
        }
      ],
      "stateMutability": "view",
      "type": "function"
    },
    {
      "inputs": [
        {
          "internalType": "address",
          "name": "npm",
          "type": "address"
        },
        {
          "internalType": "address",
          "name": "poolAddress",
          "type": "address"
        },
        {
          "internalType": "uint256",
          "name": "tokenId",
          "type": "uint256"
        }
      ],
      "name": "getCollectableAmount",
      "outputs": [
        {
          "internalType": "uint128",
          "name": "token0CollectableAmount",
          "type": "uint128"
        },
        {
          "internalType": "uint128",
          "name": "token1CollectableAmount",
          "type": "uint128"
        }
      ],
      "stateMutability": "view",
      "type": "function"
    },
    {
      "inputs": [
        {
          "internalType": "address",
          "name": "npm",
          "type": "address"
        },
        {
          "internalType": "address",
          "name": "poolAddress",
          "type": "address"
        },
        {
          "internalType": "uint256",
          "name": "tokenId",
          "type": "uint256"
        }
      ],
      "name": "getCollectableTotalAmountBasedToken0",
      "outputs": [
        {
          "internalType": "uint256",
          "name": "amount0",
          "type": "uint256"
        }
      ],
      "stateMutability": "view",
      "type": "function"
    },
    {
      "inputs": [
        {
          "internalType": "address",
          "name": "npm",
          "type": "address"
        },
        {
          "internalType": "address",
          "name": "poolAddress",
          "type": "address"
        },
        {
          "internalType": "uint256",
          "name": "tokenId",
          "type": "uint256"
        }
      ],
      "name": "getCollectableTotalAmountBasedToken1",
      "outputs": [
        {
          "internalType": "uint256",
          "name": "amount1",
          "type": "uint256"
        }
      ],
      "stateMutability": "view",
      "type": "function"
    },
    {
      "inputs": [
        {
          "internalType": "uint160",
          "name": "sqrtPriceX96",
          "type": "uint160"
        }
      ],
      "name": "getPriceX96FromSqrtPriceX96",
      "outputs": [
        {
          "internalType": "uint256",
          "name": "priceX96",
          "type": "uint256"
        }
      ],
      "stateMutability": "pure",
      "type": "function"
    },
    {
      "inputs": [
        {
          "internalType": "address",
          "name": "poolAddress",
          "type": "address"
        },
        {
          "internalType": "uint32",
          "name": "twapInterval",
          "type": "uint32"
        }
      ],
      "name": "getSqrtTwapX96",
      "outputs": [
        {
          "internalType": "uint160",
          "name": "sqrtPriceX96",
          "type": "uint160"
        }
      ],
      "stateMutability": "view",
      "type": "function"
    },
    {
      "inputs": [
        {
          "internalType": "address",
          "name": "npm",
          "type": "address"
        },
        {
          "internalType": "address",
          "name": "poolAddress",
          "type": "address"
        },
        {
          "internalType": "uint256",
          "name": "tokenId",
          "type": "uint256"
        }
      ],
      "name": "getTotalAmountBasedToken0",
      "outputs": [
        {
          "internalType": "uint256",
          "name": "totalAmount0",
          "type": "uint256"
        }
      ],
      "stateMutability": "view",
      "type": "function"
    },
    {
      "inputs": [
        {
          "internalType": "address",
          "name": "npm",
          "type": "address"
        },
        {
          "internalType": "address",
          "name": "poolAddress",
          "type": "address"
        },
        {
          "internalType": "uint256",
          "name": "tokenId",
          "type": "uint256"
        }
      ],
      "name": "getTotalAmountBasedToken1",
      "outputs": [
        {
          "internalType": "uint256",
          "name": "totalAmount1",
          "type": "uint256"
        }
      ],
      "stateMutability": "view",
      "type": "function"
    }
  ],
  "bytecode": "0x608060405234801561001057600080fd5b50611cea806100206000396000f3fe608060405234801561001057600080fd5b506004361061009e5760003560e01c806388d714721161006657806388d714721461012d5780638d97169c14610160578063c2e2ce9d14610173578063d20aecad14610186578063ddf16d6d146101ae57600080fd5b806305f643b9146100a357806324339db1146100c957806347628f60146100dc5780634e09a61014610107578063529cb18c1461011a575b600080fd5b6100b66100b13660046116cc565b6101c1565b6040519081526020015b60405180910390f35b6100b66100d73660046116cc565b610334565b6100ef6100ea366004611737565b610492565b6040516001600160a01b0390911681526020016100c0565b6100b6610115366004611898565b6106b7565b6100b66101283660046116cc565b6106d1565b61014061013b3660046116cc565b610820565b604080516001600160801b039384168152929091166020830152016100c0565b6100b661016e36600461170c565b610a02565b6100b661018136600461170c565b610ac7565b6101996101943660046116cc565b610b80565b604080519283526020830191909152016100c0565b6100b66101bc3660046116cc565b610cc9565b6000806000846001600160a01b0316633850c7bd6040518163ffffffff1660e01b815260040160e06040518083038186803b1580156101ff57600080fd5b505afa158015610213573d6000803e3d6000fd5b505050506040513d601f19601f8201168201806040525081019061023791906118b4565b50505050509150915060008060008060008a6001600160a01b03166399fbab888a6040518263ffffffff1660e01b815260040161027691815260200190565b6101806040518083038186803b15801561028f57600080fd5b505afa1580156102a3573d6000803e3d6000fd5b505050506040513d601f19601f820116820180604052508101906102c7919061194b565b505050509750975097505096509650505060006102e384610e0a565b905060006102f084610e0a565b90506000806103018b858588611221565b9150915060006103138b838b8d6112bd565b905061031f8184611af4565b9c505050505050505050505050509392505050565b6000806000846001600160a01b0316633850c7bd6040518163ffffffff1660e01b815260040160e06040518083038186803b15801561037257600080fd5b505afa158015610386573d6000803e3d6000fd5b505050506040513d601f19601f820116820180604052508101906103aa91906118b4565b50505050509150915060008060008060008a6001600160a01b03166399fbab888a6040518263ffffffff1660e01b81526004016103e991815260200190565b6101806040518083038186803b15801561040257600080fd5b505afa158015610416573d6000803e3d6000fd5b505050506040513d601f19601f8201168201806040525081019061043a919061194b565b5050505097509750975050965096505050600061045684610e0a565b9050600061046384610e0a565b90506000806104748b858588611221565b9150915060006104868b848c8c6112bd565b905061031f8183611af4565b600063ffffffff821661051f57826001600160a01b0316633850c7bd6040518163ffffffff1660e01b815260040160e06040518083038186803b1580156104d857600080fd5b505afa1580156104ec573d6000803e3d6000fd5b505050506040513d601f19601f8201168201806040525081019061051091906118b4565b509495506106b1945050505050565b604080516002808252606082018352600092602083019080368337019050509050828160008151811061056257634e487b7160e01b600052603260045260246000fd5b602002602001019063ffffffff16908163ffffffff168152505060008160018151811061059f57634e487b7160e01b600052603260045260246000fd5b63ffffffff9092166020928302919091019091015260405163883bdbfd60e01b81526000906001600160a01b0386169063883bdbfd906105e3908590600401611a2a565b60006040518083038186803b1580156105fb57600080fd5b505afa15801561060f573d6000803e3d6000fd5b505050506040513d6000823e601f3d908101601f191682016040526106379190810190611777565b5090506106ac8460030b8260008151811061066257634e487b7160e01b600052603260045260246000fd5b60200260200101518360018151811061068b57634e487b7160e01b600052603260045260246000fd5b602002602001015161069d9190611b7d565b6106a79190611b0c565b610e0a565b925050505b92915050565b60006106b16001600160a01b03831680600160601b6113c6565b600080836001600160a01b0316633850c7bd6040518163ffffffff1660e01b815260040160e06040518083038186803b15801561070d57600080fd5b505afa158015610721573d6000803e3d6000fd5b505050506040513d601f19601f8201168201806040525081019061074591906118b4565b5050505050915050600080866001600160a01b03166399fbab88866040518263ffffffff1660e01b815260040161077e91815260200190565b6101806040518083038186803b15801561079757600080fd5b505afa1580156107ab573d6000803e3d6000fd5b505050506040513d601f19601f820116820180604052508101906107cf919061194b565b50505050505050509350935050506000806107eb898989610820565b9150915060006107fd868386886112bd565b9050610812816001600160801b038516611af4565b9a9950505050505050505050565b60008060008060008060008060008b6001600160a01b03166399fbab888b6040518263ffffffff1660e01b815260040161085c91815260200190565b6101806040518083038186803b15801561087557600080fd5b505afa158015610889573d6000803e3d6000fd5b505050506040513d601f19601f820116820180604052508101906108ad919061194b565b9b509b509b509b509b509b509b505050505050600061091e8d89896040805160609490941b6bffffffffffffffffffffffff1916602080860191909152600293840b60e890811b60348701529290930b90911b60378401528051601a818503018152603a9093019052815191012090565b90506000808d6001600160a01b031663514ea4bf846040518263ffffffff1660e01b815260040161095191815260200190565b60a06040518083038186803b15801561096957600080fd5b505afa15801561097d573d6000803e3d6000fd5b505050506040513d601f19601f820116820180604052508101906109a19190611842565b505092509250506109cb87836109b79190611bf4565b896001600160801b0316600160801b6113c6565b6109d59086611ac9565b9b506109e46109b78783611bf4565b6109ee9085611ac9565b9a5050505050505050505050935093915050565b600080600080856001600160a01b03166399fbab88866040518263ffffffff1660e01b8152600401610a3691815260200190565b6101806040518083038186803b158015610a4f57600080fd5b505afa158015610a63573d6000803e3d6000fd5b505050506040513d601f19601f82011682018060405250810190610a87919061194b565b5050505097509750975050505050506000610aa184610e0a565b90506000610aae84610e0a565b9050610abb828285611542565b98975050505050505050565b600080600080856001600160a01b03166399fbab88866040518263ffffffff1660e01b8152600401610afb91815260200190565b6101806040518083038186803b158015610b1457600080fd5b505afa158015610b28573d6000803e3d6000fd5b505050506040513d601f19601f82011682018060405250810190610b4c919061194b565b5050505097509750975050505050506000610b6684610e0a565b90506000610b7384610e0a565b9050610abb8282856115ac565b6000806000846001600160a01b0316633850c7bd6040518163ffffffff1660e01b815260040160e06040518083038186803b158015610bbe57600080fd5b505afa158015610bd2573d6000803e3d6000fd5b505050506040513d601f19601f82011682018060405250810190610bf691906118b4565b50505050505090506000806000886001600160a01b03166399fbab88886040518263ffffffff1660e01b8152600401610c3191815260200190565b6101806040518083038186803b158015610c4a57600080fd5b505afa158015610c5e573d6000803e3d6000fd5b505050506040513d601f19601f82011682018060405250810190610c82919061194b565b5050505097509750975050505050506000610c9c84610e0a565b90506000610ca984610e0a565b9050610cb786838386611221565b909c909b509950505050505050505050565b600080836001600160a01b0316633850c7bd6040518163ffffffff1660e01b815260040160e06040518083038186803b158015610d0557600080fd5b505afa158015610d19573d6000803e3d6000fd5b505050506040513d601f19601f82011682018060405250810190610d3d91906118b4565b5050505050915050600080866001600160a01b03166399fbab88866040518263ffffffff1660e01b8152600401610d7691815260200190565b6101806040518083038186803b158015610d8f57600080fd5b505afa158015610da3573d6000803e3d6000fd5b505050506040513d601f19601f82011682018060405250810190610dc7919061194b565b5050505050505050935093505050600080610de3898989610820565b915091506000610df5868487876112bd565b9050610812816001600160801b038416611af4565b60008060008360020b12610e21578260020b610e2e565b8260020b610e2e90611c40565b9050610e3d620d89e719611c1f565b60020b811115610e775760405162461bcd60e51b81526020600482015260016024820152601560fa1b604482015260640160405180910390fd5b600060018216610e8b57600160801b610e9d565b6ffffcb933bd6fad37aa2d162d1a5940015b6001600160881b031690506002821615610ed2576080610ecd826ffff97272373d413259a46990580e213a611b5e565b901c90505b6004821615610efc576080610ef7826ffff2e50f5f656932ef12357cf3c7fdcc611b5e565b901c90505b6008821615610f26576080610f21826fffe5caca7e10e4e61c3624eaa0941cd0611b5e565b901c90505b6010821615610f50576080610f4b826fffcb9843d60f6159c9db58835c926644611b5e565b901c90505b6020821615610f7a576080610f75826fff973b41fa98c081472e6896dfb254c0611b5e565b901c90505b6040821615610fa4576080610f9f826fff2ea16466c96a3843ec78b326b52861611b5e565b901c90505b6080821615610fce576080610fc9826ffe5dee046a99a2a811c461f1969c3053611b5e565b901c90505b610100821615610ff9576080610ff4826ffcbe86c7900a88aedcffc83b479aa3a4611b5e565b901c90505b61020082161561102457608061101f826ff987a7253ac413176f2b074cf7815e54611b5e565b901c90505b61040082161561104f57608061104a826ff3392b0822b70005940c7a398e4b70f3611b5e565b901c90505b61080082161561107a576080611075826fe7159475a2c29b7443b29c7fa6e889d9611b5e565b901c90505b6110008216156110a55760806110a0826fd097f3bdfd2022b8845ad8f792aa5825611b5e565b901c90505b6120008216156110d05760806110cb826fa9f746462d870fdf8a65dc1f90e061e5611b5e565b901c90505b6140008216156110fb5760806110f6826f70d869a156d2a1b890bb3df62baf32f7611b5e565b901c90505b618000821615611126576080611121826f31be135f97d08fd981231505542fcfa6611b5e565b901c90505b6201000082161561115257608061114d826f09aa508b5b7a84e1c677de54f3e99bc9611b5e565b901c90505b6202000082161561117d576080611178826e5d6af8dedb81196699c329225ee604611b5e565b901c90505b620400008216156111a75760806111a2826d2216e584f5fa1ea926041bedfe98611b5e565b901c90505b620800008216156111cf5760806111ca826b048a170391f7dc42444e8fa2611b5e565b901c90505b60008460020b13156111ea576111e781600019611b4a565b90505b6111f964010000000082611c0b565b15611205576001611208565b60005b6112199060ff16602083901c611af4565b949350505050565b600080836001600160a01b0316856001600160a01b03161115611242579293925b846001600160a01b0316866001600160a01b03161161126d57611266858585611542565b91506112b4565b836001600160a01b0316866001600160a01b031610156112a657611292868585611542565b915061129f8587856115ac565b90506112b4565b6112b18585856115ac565b90505b94509492505050565b6000806112c986610e0a565b90506001600160801b036001600160a01b0382161161134f5760006112f76001600160a01b03831680611b5e565b9050836001600160a01b0316856001600160a01b03161061132f5761132a600160c01b876001600160801b0316836113c6565b611347565b61134781876001600160801b0316600160c01b6113c6565b9250506113bd565b60006113696001600160a01b03831680600160401b6113c6565b9050836001600160a01b0316856001600160a01b0316106113a15761139c600160801b876001600160801b0316836113c6565b6113b9565b6113b981876001600160801b0316600160801b6113c6565b9250505b50949350505050565b60008080600019858709858702925082811083820303915050806000141561140057600084116113f557600080fd5b50829004905061153b565b80841161140c57600080fd5b600084868809808403938111909203919050600061142c86196001611af4565b861695869004959384900493600081900304600101905061144d8184611b5e565b90931792600061145e876003611b5e565b600218905061146d8188611b5e565b611478906002611bf4565b6114829082611b5e565b905061148e8188611b5e565b611499906002611bf4565b6114a39082611b5e565b90506114af8188611b5e565b6114ba906002611bf4565b6114c49082611b5e565b90506114d08188611b5e565b6114db906002611bf4565b6114e59082611b5e565b90506114f18188611b5e565b6114fc906002611bf4565b6115069082611b5e565b90506115128188611b5e565b61151d906002611bf4565b6115279082611b5e565b90506115338186611b5e565b955050505050505b9392505050565b6000826001600160a01b0316846001600160a01b03161115611562579192915b6001600160a01b0384166115a2600160601b600160e01b03606085901b1661158a8787611bcc565b6001600160a01b0316866001600160a01b03166113c6565b6112199190611b4a565b6000826001600160a01b0316846001600160a01b031611156115cc579192915b6112196001600160801b0383166115e38686611bcc565b6001600160a01b0316600160601b6113c6565b805161160181611c9c565b919050565b600082601f830112611616578081fd5b8151602061162b61162683611aa5565b611a74565b80838252828201915082860187848660051b890101111561164a578586fd5b855b8581101561167157815161165f81611c9c565b8452928401929084019060010161164c565b5090979650505050505050565b8051600281900b811461160157600080fd5b80516001600160801b038116811461160157600080fd5b805161ffff8116811461160157600080fd5b805162ffffff8116811461160157600080fd5b6000806000606084860312156116e0578283fd5b83356116eb81611c9c565b925060208401356116fb81611c9c565b929592945050506040919091013590565b6000806040838503121561171e578182fd5b823561172981611c9c565b946020939093013593505050565b60008060408385031215611749578182fd5b823561175481611c9c565b9150602083013563ffffffff8116811461176c578182fd5b809150509250929050565b60008060408385031215611789578182fd5b825167ffffffffffffffff808211156117a0578384fd5b818501915085601f8301126117b3578384fd5b815160206117c361162683611aa5565b8083825282820191508286018a848660051b89010111156117e2578889fd5b8896505b848710156118125780518060060b81146117fe57898afd5b8352600196909601959183019183016117e6565b509188015191965090935050508082111561182b578283fd5b5061183885828601611606565b9150509250929050565b600080600080600060a08688031215611859578081fd5b61186286611690565b9450602086015193506040860151925061187e60608701611690565b915061188c60808701611690565b90509295509295909350565b6000602082840312156118a9578081fd5b813561153b81611c9c565b600080600080600080600060e0888a0312156118ce578485fd5b87516118d981611c9c565b96506118e76020890161167e565b95506118f5604089016116a7565b9450611903606089016116a7565b9350611911608089016116a7565b925060a088015160ff81168114611926578283fd5b60c0890151909250801515811461193b578182fd5b8091505092959891949750929550565b6000806000806000806000806000806000806101808d8f03121561196d578586fd5b8c516bffffffffffffffffffffffff81168114611988578687fd5b9b5061199660208e016115f6565b9a506119a460408e016115f6565b99506119b260608e016115f6565b98506119c060808e016116b9565b97506119ce60a08e0161167e565b96506119dc60c08e0161167e565b95506119ea60e08e01611690565b94506101008d015193506101208d01519250611a096101408e01611690565b9150611a186101608e01611690565b90509295989b509295989b509295989b565b6020808252825182820181905260009190848201906040850190845b81811015611a6857835163ffffffff1683529284019291840191600101611a46565b50909695505050505050565b604051601f8201601f1916810167ffffffffffffffff81118282101715611a9d57611a9d611c86565b604052919050565b600067ffffffffffffffff821115611abf57611abf611c86565b5060051b60200190565b60006001600160801b03828116848216808303821115611aeb57611aeb611c5a565b01949350505050565b60008219821115611b0757611b07611c5a565b500190565b60008160060b8360060b80611b2357611b23611c70565b667fffffffffffff19821460001982141615611b4157611b41611c5a565b90059392505050565b600082611b5957611b59611c70565b500490565b6000816000190483118215151615611b7857611b78611c5a565b500290565b60008160060b8360060b82811281667fffffffffffff1901831281151615611ba757611ba7611c5a565b81667fffffffffffff018313811615611bc257611bc2611c5a565b5090039392505050565b60006001600160a01b0383811690831681811015611bec57611bec611c5a565b039392505050565b600082821015611c0657611c06611c5a565b500390565b600082611c1a57611c1a611c70565b500690565b60008160020b627fffff19811415611c3957611c39611c5a565b9003919050565b6000600160ff1b821415611c5657611c56611c5a565b0390565b634e487b7160e01b600052601160045260246000fd5b634e487b7160e01b600052601260045260246000fd5b634e487b7160e01b600052604160045260246000fd5b6001600160a01b0381168114611cb157600080fd5b5056fea26469706673582212207ade90f605e018edd737f379338fde05506693d967956d2275230288295323d764736f6c63430008040033",
  "linkReferences": {},
  "deployedLinkReferences": {}
}